S00D000065736461712E7372656309
S3150800600000400020618A0008058A0008098A0008FD
S315080060100000000000000000000000000000000072
S315080060200000000000000000000000000D8A0008C3
S315080060300000000000000000118A0008158A000808
S31508006040B18A000800000000B18A0008B18A000879
S31508006050B18A0008B18A0008B18A0008B18A000826
S31508006060000000001D8A0008B18A0008B18A0008ED
S31508006070B18A0008B18A0008B18A00080000000049
S31508006080B18A0008B18A0008B18A0008B18A0008F6
S31508006090B18A0008B18A00082D8A0008B18A00086A
S315080060A0B18A0008B18A0008B18A00083D8A00084A
S315080060B0B18A0008B18A0008000000004D8A00086D
S315080060C010B5064C2378002B07D1054B002B02D0C0
S315080060D0044800E000BF0123237010BD50070020CC
S315080060E000000000B4CF0008044B10B5002B03D005
S315080060F00349044800E000BF10BDC0460000000088
S3150800610054070020B4CF000802780B78002A03D081
S31508006110013001319A42F7D0D01A70470023C25C89
S315080061200133002AFBD1581E70470000002243089D
S315080061308B4274D303098B425FD3030A8B4244D341
S31508006140030B8B4228D3030C8B420DD3FF22090283
S3150800615012BA030C8B4202D31212090265D0030B42
S315080061608B4219D300E0090AC30B8B4201D3CB0338
S31508006170C01A5241830B8B4201D38B03C01A52417A
S31508006180430B8B4201D34B03C01A5241030B8B427C
S3150800619001D30B03C01A5241C30A8B4201D3CB0267
S315080061A0C01A5241830A8B4201D38B02C01A52414C
S315080061B0430A8B4201D34B02C01A5241030A8B424F
S315080061C001D30B02C01A5241CDD2C3098B4201D367
S315080061D0CB01C01A524183098B4201D38B01C01AE5
S315080061E0524143098B4201D34B01C01A524103095C
S315080061F08B4201D30B01C01A5241C3088B4201D30B
S31508006200CB00C01A524183088B4201D38B00C01AB7
S31508006210524143088B4201D34B00C01A5241411ADE
S3150800622000D20146524110467047FFE701B50020EB
S3150800623000F006F802BDC0460029F7D076E7704799
S315080062407047C0468446081C6146FFE71FB500F044
S315080062505BFA002801D40021C8421FBD10B500F022
S31508006260DDF94042013010BD10B500F04DFA0028A6
S3150800627001DB002010BD012010BDC04610B500F09E
S3150800628043FA002801DD002010BD012010BDC046DC
S3150800629010B500F0EBF9002801DC002010BD012044
S315080062A010BDC04610B500F0E1F9002801DA00205B
S315080062B010BD012010BDC0469E2110B5C905041C9D
S315080062C0FFF7F0FF002803D1201C00F063FD10BD86
S315080062D09E21201CC90500F099FB00F05BFD802378
S315080062E01B069C466044F2E7F8B54746CE4643028D
S315080062F05B0A4400C20F9C464800DD004B02240E90
S315080063005B0A000E80B5984626009146C90FDB0049
S31508006310271A8A4229D0002F15DD00284AD1002BDA
S3150800632000D095E0ED08FF2C00D188E06B025B0AEF
S31508006330E6B25B02F605580A3043D20710430CBC96
S3150800634090469946F8BD002F00D087E0601CC0B281
S31508006350012800DCB6E0EE1A720100D5C5E0002E71
S315080063603DD1002200260023E3E7002F00DC96E05B
S3150800637000285DD0FF2C60D08022D20413431B2F47
S3150800638000DDECE02022D21B18009340F8405A1E8C
S3150800639093410343ED186B017BD50134FF2C00D1E3
S315080063A0B7E0012207262A406B089A4D1D4015437F
S315080063B02E4029E0FF2CB5D08022D20413431B2F90
S315080063C000DDB2E02022D21B19009340F9405A1E84
S315080063D093410B43ED1A6B015BD5AD01AE09300055
S315080063E001F062FB05388640844265DC041B3300F5
S315080063F020200134E340041BA640751EAE413343FA
S3150800640007261D0000241E4001224B461A40002E76
S3150800641004D00F232B40042B00D004356B0100D485
S3150800642080E70134E6B2FF2C2FD1FF26002380E750
S31508006430002B52D1FF2C00D074E70A00ED08002D7E
S31508006440F3D08023DB032B435B025B0AFF2670E74E
S31508006450013F002FBED0FF2CB1D163E7002C47D0F7
S31508006460FF2869D08024E4047A4225431B2A00DDEC
S31508006470C5E02C002026D440B21A95406A1E9541E4
S3150800648025435D1B04008946A5E7AB015B0A50E777
S31508006490002401224B461A406B07BAD142E7002F67
S315080064A03BD10134E0B201284ADDFF2CBDD00726D6
S315080064B0ED186D082E40A7E70723574D241A3540D7
S315080064C01E40A1E7002C1BD1002D6ED1002B00D158
S315080064D09AE00A001D003C0024E7013F002F00D186
S315080064E058E7FF2C00D04AE7A7E75E1B894676E700
S315080064F0002D1CD10A00FF281FD004001D0011E73B
S31508006500002D5DD1002B17D180230022DB03FF2647
S315080065100FE70A00FF2600230BE7002C21D1002DE8
S3150800652066D1FF28E9D11D0087E7012352E77A1CC7
S31508006530A7D0FA43FF2899D10A001D00FF24F1E6E7
S31508006540002E21D1002D4FD0002B4CD0ED186B0119
S315080065509ED5314B07362E4001241D4054E70123B2
S3150800656018E7FF28DFD08024E4047F4225431B2F49
S315080065704DDC2026F61B2C00B540FC406A1E9541D2
S315080065802543ED18040006E7002DCCD0002B00D1DA
S3150800659053E780216046C903084203D040460842B3
S315080065A000D11D000121114047E7002B00D1B9E6B3
S315080065B0EA1A500125D507265D1B2E40894623E792
S315080065C0FF24002B00D1ADE680226046D20310429C
S315080065D004D04046104201D11D00894601224B468F
S315080065E0FF241A409EE62B00DD080A0000249DE6DB
S315080065F07A1CC6D0FF43FF28B9D11D001DE7012527
S315080066003FE7151E00D044E70022002391E6012546
S31508006610B7E7C046FFFFFF7DFFFFFFFB70B54200EF
S315080066204E024C0045026D0A120EC30F760A240E5E
S31508006630C90FFF2A0FD0FF2C11D00120A24200D08B
S3150800664070BDB542FCD18B420DD0002AF8D1280086
S31508006650451EA841F4E70120002DF1D1EBE7012002
S31508006660002EEDD1E9E70020EAE7C04670B54A00FA
S315080066704E02450244006D0A240EC30F760A120E16
S31508006680C90FFF2C15D0FF2A0ED0002C15D1002AD1
S3150800669001D1002E1CD0002D14D08B4227D0022009
S315080066A0013B1840013870BD002EEED00220404252
S315080066B0F9E7002DFAD1FF2A0ED0002A0ED1002EB6
S315080066C0EDD00BE001230139994308000130EAE7D0
S315080066D00020002DE7D0E2E7002EE7D18B42DED17D
S315080066E0944205DD0221581E08400138DBE70024E4
S315080066F0A24204DCB542D2D80020B542D3D2581EF5
S31508006700012398430130CEE730B5420044024D02DA
S31508006710C30F4800640A120E6D0A000EC90FFF2A3D
S3150800672012D0FF280CD0002A12D1002819D1002D2A
S3150800673017D1002C2BD00220013B1840013826E047
S31508006740002DF0D0022022E0002CFBD1FF281FD01C
S3150800675000281FD1002D1DD10220013B1840013809
S3150800676015E0002C0ED08B42E5D10022904204DCC5
S31508006770AC42E0D80020AC4209D2581E0123984307
S31508006780013004E00123013999430800013030BD86
S31508006790002DD7D18B42CED18242E7DD0221581E89
S315080067A008400138F3E7C046F0B54E465746454619
S315080067B0DE46E0B543025B0A450083B00F1C9946E6
S315080067C02D0EC60F002D57D0FF2D24D08020DB00BC
S315080067D0C0041843002381469A469B467F3D7C02A7
S315080067E07A00FB0F640A120E984623D0FF2A4BD074
S315080067F0E30080240020E4047F3A1C43AD186B1C98
S3150800680047460193534677403A000F2B48D87D49AF
S315080068109B00CB589F46002B00D085E008339A464C
S31508006820063B9B467C027A00FB0FFF25640A120E84
S315080068309846DBD1002C00D090E0524601231A433B
S3150800684092460120DBE74C4658461700022824D01A
S31508006850032800D1CFE00022002301284DD1580299
S31508006860D205400AFF071043384303B03CBC9046A4
S315080068709946A246AB46F0BD002B5BD104239A4647
S31508006880033B00259B46AAE7FF35002C60D15246FC
S3150800689002231A4392460220B1E7FF220023DEE7CD
S315080068A04B461B0C9C464B462604360C1804614680
S315080068B03300220C6446000C43434E435043544372
S315080068C080191A0C1218964203D9802149028C465F
S315080068D064441B041B0C1004C01883015E1EB341DC
S315080068E0800E1843130C1B199B0103431C0023013C
S315080068F079D5012362081C401443019A7F32002A85
S315080069004DDD630704D00F232340042B00D0043445
S31508006910230103D53C4B019A1C408032FE2ABCDC7D
S31508006920A3015B0AD2B29AE70C239A46093BFF25D4
S315080069309B4654E7180001F0B7F84A46431F7625E8
S315080069409A4000236D4291462D1A9A469B4646E781
S31508006950524603231A439246032050E7200001F0CB
S31508006960A3F8431F2D1A9C40763D002047E7802355
S315080069700027DB03FF2272E7424666E74C463200F1
S31508006980584662E780234A46DB031A4222D01C4255
S3150800699020D123435B025B0A4746FF225FE70123B8
S315080069A09A1A1B2A21DC23000199D3409E318C4078
S315080069B01A0023005C1EA34113435A0704D00F2272
S315080069C01A40042A00D004335A0111D49B015B0AE9
S315080069D0002244E780234A46DB0313435B025B0A33
S315080069E03700FF223BE7019587E70022002336E7B9
S315080069F00122002333E78023DB0323435B025B0A80
S31508006A00FF222CE7ECCF0008FFFFFFF7F8B5474653
S31508006A10CE464400C20F80B547024802400A844663
S31508006A20664648007F0A240EF60025009046FB00BD
S31508006A30000EC90FB146FF2800D185E00126714036
S31508006A40261A914257D0002E43DD002800D07FE059
S31508006A504946002900D1AAE0013E002E00D0F7E001
S31508006A605B1A5A0100D48BE09B019C09200001F0B7
S31508006A701BF805388440854200DDD3E0451B23001A
S31508006A8020200135EB40451BAC40621E9441234350
S31508006A90072400251C40012241460A40002C04D048
S31508006AA00F211940042900D00433590100D480E08D
S31508006AB00135ECB2FF2D00D0A3E0FF2400235B02D2
S31508006AC0E405580AD207204310430CBC9046994661
S31508006AD0F8BD002E74D1601CC0B2012800DCA7E006
S31508006AE04A469C1A620100D5B6E0002CBED10022A7
S31508006AF000240023E3E7002E00DC85E0002846D0CA
S31508006B00FF2C49D080224846D204104381460122F0
S31508006B101B2E09DC20204C46801B84404A46200058
S31508006B20F240441EA04102439B185A0128D501355C
S31508006B30FF2D00D1A8E00122072494491A405B08DA
S31508006B400B4013431C40A6E7002E00D078E775E7F4
S31508006B50FF2C54D080224946D2041143894601228B
S31508006B601B2E09DC20214846891B88404A4601001D
S31508006B70F240481E81410A439B1A5A0100D573E721
S31508006B80012241460A40590700D089E711E04846E4
S31508006B90002858D1FF2C0CD1DB08002B00D18CE73C
S31508006BA08020C00303435B025B0AFF2487E7FF2CB0
S31508006BB025D0DB08FF2DF0D05B025B0AECB27EE73E
S31508006BC0002C4DD0FF2818D08024E40472422343B9
S31508006BD01B2A00DDC4E01C002025D440AA1A9340D5
S31508006BE05A1E934123434A460500D31A884638E776
S31508006BF0721CF8D0F243FF28EAD10A004B46FF255B
S31508006C00D7E79B015B0A5AE7002E41D1651CE9B21A
S31508006C10012945DDFF2D00D14FE707244B445B08CA
S31508006C201C4038E707225A4B2D1A2340144032E7F6
S31508006C30002C1DD1002B7AD14B46002B00D191E0B8
S31508006C400A000025B5E7013E002E19D14B446CE732
S31508006C50FF2C84D1FF25ACE74A468846D41A05E7B7
S31508006C60002BC5D10A00FF28C8D005004B46A0E76F
S31508006C70002B49D14B46002B77D00A00FF2598E711
S31508006C80FF2C00D043E787E70A00FF24002316E716
S31508006C90002C15D1002B57D1FF28E6D14B467BE7B0
S31508006CA0002C20D1002B57D04946002953D04B44FD
S31508006CB05A0168D50724364A1C4001251340EAE6DE
S31508006CC0FF28EBD08022D204764213431B2E53DCD6
S31508006CD02025AD1B1A00AB40F2405C1EA3411343AE
S31508006CE04B44050021E7002BD8D04946002900D19E
S31508006CF052E78021C9030F4200D14DE7604608429A
S31508006D0000D049E74B4647E74846FF25002800D10B
S31508006D104FE78022D203174204D06046104201D1C1
S31508006D204B46884601224146FF250A4041E7484628
S31508006D3000281FD01A1A500120D54A460724D31A0C
S31508006D401C4088460025A6E6741CC9D0F643FF28D1
S31508006D50BCD14B4620E799464B460025DB082BE776
S31508006D60012340E700220023A9E680230022DB0353
S31508006D70FF24A4E600251CE70123B1E7002AF1D089
S31508006D8013000025FCE60025FAE6C046FFFFFF7D56
S31508006D90FFFFFFFB41024200C30F490A120E002003
S31508006DA07E2A0DD99D2A0CD8802000040143952AF5
S31508006DB00ADC9620821AD1404842002B00D10800EE
S31508006DC07047034A9818FBE7963A9140F4E7C0469D
S31508006DD0FFFFFF7F70B5041E34D000F065FE9E22CB
S31508006DE0121A962A07DCD2B208282EDD0838844003
S31508006DF06002400A21E0992A09DD030021001B33BD
S31508006E0099404B1E994105231B1ADC400C43052863
S31508006E1001DD431F9C4023000D490B40650709D03F
S31508006E200F252C40042C05D004335C0102D59F2283
S31508006E300B40121A9B01580AD2B24002D205400AE8
S31508006E40104370BD00220020F7E76002400AF4E70D
S31508006E50FFFFFFFBF0B55746DE464E464546E0B512
S31508006E60834606000F03480087B092461D003F0B75
S31508006E70400DCC0F002800D16FE0DE4B984238D089
S31508006E808023FF001B041F43730F3B430193DA4B18
S31508006E900027994600239B46F60081442B03690088
S31508006EA01B0B52469846490DED0F002900D185E087
S31508006EB0D04B994200D173E04346DA0080231B0485
S31508006EC013435246CC48520F844613435246002079
S31508006ED06144D20089442100694000918C46012111
S31508006EE049448A460F2F00D990E0C449BF00CF59BC
S31508006EF0BF465B463B43019300D06AE1022308275D
S31508006F00002681469B46C9E732005846019B6146E2
S31508006F100091022800D175E0032800D1FEE101287E
S31508006F2000D02CE100230027002600253F032A0D68
S31508006F303F0BB34812053A4302401B051343009A18
S31508006F405B00D1075B080B433000190007B03CBC57
S31508006F5090469946A246AB46F0BD5B463B43019335
S31508006F6000D12FE1002F00D1A5E1380000F09CFDEB
S31508006F7003000B3B1C2B00DD96E11D22D31A5A4653
S31508006F800100DA405E4608398F4013008E403B43C5
S31508006F9001939C4B00271B1A994600239B467DE7C5
S31508006FA0414653460B4393498C46E144002B00D097
S31508006FB01AE102220220174300228CE7134300D16C
S31508006FC00DE14346002B00D181E1404600F06CFDFF
S31508006FD002000B3A1C2A00DD72E10100434608391B
S31508006FE08B4098461D239A1A5346D3401A004346A7
S31508006FF0134352468A404946081A824989468144BB
S31508007000002068E77B4B002700268EE7140C120445
S31508007010120C1100370C3604350C794328008C46BF
S315080070202E0060436044834656432100300C804658
S315080070305846794340440291844506D988468021BA
S3150800704049028C46E044414602913604010C360C4E
S3150800705000048B4681191E0C1B041B0C0391190096
S3150800706079438C46280075436544A8465843050C61
S3150800707045447743A94203D9802149028C4667448F
S31508007080290C8C4639000004000C2D042D18614487
S31508007090AB4405915946049101990F043F0C080C1D
S315080070A0390051434243904602008C46090C8B46F0
S315080070B062437C4344445C44A04503D98021490289
S315080070C088464244210C884661460904090C8C46C8
S315080070D039005943434370437E430F0CF618240482
S315080070E0BE19644442448C46B34203D980235B02EA
S315080070F098464044029B61469846049B370443449D
S315080071009B46AB45AD416B420D0405992D0C8C464B
S315080071107F196744FD18A8465D462D19A542A44166
S3150800712093466442A446C344DC448F42BF41984513
S315080071309B4193459241A445A4415B427F421F432C
S31508007140360C52426442BF192243BF1862463818A9
S315080071504302D20D039913436A020A43501E824121
S315080071606146ED0D2A434E023243D90100D4B3E0FD
S315080071700126500832400243DE0732435B08224CA0
S315080071805444002C62DD510709D00F201040042812
S3150800719005D0101D9042924152429B180200D90117
S315080071A004D580241948E40003405444184884420E
S315080071B000DD27E75E075B02D2081F0B630516434F
S315080071C05B0DB2E6002399460133042700269B4649
S315080071D064E60323019781460C279B465EE6012257
S315080071E001201743002276E6032303201F43434664
S315080071F071E6C046FF07000001FCFFFF2CD000081F
S31508007200FFFF0F800DFCFFFFFF030000FFFFFFFEDF
S31508007210FE0700000023802700933F030026434B08
S3150800722083E6019B3200A446584670E6AC466EE6F5
S31508007230802701993F0339422DD03B422BD11F436A
S315080072403F033F0B00951600384B6EE601252D1BB4
S31508007250382D00DD66E61F2D40DC35481C005044FD
S31508007260160082408440EE40501E82413443144347
S31508007270EB40620709D00F222240042A05D02200DB
S31508007280141D9442804140421B181A023ED5012320
S315080072900027002649E68027019B3F031F433F033B
S315080072A03F0B0094214B40E603005A46283B9A4080
S315080072B0002601926DE6584600F0F6FB203057E6A8
S315080072C003005246283B9A401300002293E6504694
S315080072D000F0EAFB20307BE6CA4650E71F201E0076
S315080072E04042041BE640202D03D0124C5444A340D0
S315080072F01A43501E8241324307260027164009D0FA
S315080073000F200023104014000428B9D122005E077C
S315080073105B021F0BD2081643002306E680273F03AD
S315080073201F433F033F0B1600004BFEE5FF07000017
S315080073301E0400003E040000F8B557464E46454672
S31508007340DE460C000903E0B5490A460F5F003143E3
S315080073501E03DB0F760A9B46530F3343C84E650060
S31508007360C000E40FD2006D0DA24681467F0D9C46F3
S315080073709046B74200D1B9E05B46012673409B466A
S31508007380EE1BA34500D183E0002E63DD002F00D05D
S31508007390B1E06346134300D123E1731E002B00D0EE
S315080073A0BAE1861A6346B04280410125C91A4042AD
S315080073B0091A0B0200D447E149024B0A984643468C
S315080073C0002B00D189E1404600F06EFB0300083B24
S315080073D01F2B00DD7CE120223000D21A4146D04026
S315080073E0994002009E400A439D4200DD6AE15D1B0A
S315080073F06B1C1F2B00DD94E1202110003500C91AF3
S315080074008E40DA408840DD40711E8E411100072209
S315080074102843002506433240002A09D00F2333406B
S31508007420042B05D0331DB342B641764289191E0096
S315080074300B0200D43DE26A1C914B55056D0D9A422C
S3150800744000D119E18F4AF6080A4057075202374316
S31508007450120B9BE0002E00D0C5E06E1C7605760D5B
S31508007460012E00DC48E16746861ACB1BB042BF41B5
S315080074707F42B8461F004346FF1A3B00B8461B0228
S3150800748000D55FE137439AD100220024002579E030
S31508007490002E00DCFAE0002F00D18DE0784B9D42EB
S315080074A067D0802367461B041F43BC46382E00DC82
S315080074B052E1634613435A1E93411E188642804181
S315080074C0404209180B0200D4BEE06D4B01359D42BF
S315080074D000D1D2E06B4A73080A4001210E401E43D0
S315080074E05108D30707221E43324095E71E0016436C
S315080074F000D045E740E7624B9D423AD08023674675
S315080075001B041F43BC46382E00DDEBE01F2E00DCB3
S315080075103AE133006746203BDF403B00202E05D08A
S315080075204027BF1B6646BE40324390464646721EFB
S3150800753096413343DAE0002B00D114E26346134345
S3150800754000D168E180234E07C008C9081B0306431B
S31508007550194208D06046C008184204D163460100A3
S31508007560D2085E071643F3009946C900720F444DC8
S3150800757011434B46DE08424B4F073743CA089D4224
S3150800758000D16EE012036D05120B6D0D002112037A
S31508007590130B0A0D12051A433B4B2D0513402B43BB
S315080075A05B00E4075B082343380019003CBC90469F
S315080075B09946A246AB46F8BD6346134311D0731EDF
S315080075C0002B00D007E1861886428041614440427C
S315080075D0091801250B0237D502257BE73E006146CF
S315080075E091463500C5E75C46002D00D0E1E00B006A
S315080075F00343F3D0731C00D1ACE1214B9F4200D169
S315080076003AE1F343382B00DD6FE11F2B00DD8CE1F7
S3150800761020250E00ED1AAE40B0460600AA46DE400A
S31508007620454635432E005546D940A8406346451E73
S31508007630A8415B1A9C463043161AB24292416346E9
S315080076405242991A3D00B4E607223240002A00D079
S31508007650E4E60B4BF6084F073743CA089D4200D0AD
S3150800766090E73B00134300D1A6E180231B031A438E
S315080076701203120B024D89E715000022002785E741
S31508007680FF070000FFFF7FFFFFFF0F80002E00D0DF
S31508007690C7E06B1C5E05760D012E00DCF0E0C84DD8
S315080076A0AB4200D1B9E085180A0085428941624497
S315080076B0494251180722CE076D082E434908324021
S315080076C01D00A9E6BF49ED1A114007223240A3E67C
S315080076D0320028388240002686E6300000F0E4F9B9
S315080076E0203073E6634613435A1E9341C61AB042C6
S315080076F080414042091A5CE60E0067460643174376
S31508007700002D5ED1002E00D0F3E0002F00D11EE13F
S315080077105C46614691462CE7A94FBE427BD01E00C7
S31508007720F1E610001F3DE840202B03D04021CB1A7C
S315080077309A401643731E9E41072206433240002193
S31508007740002583E7161A6346B2428041591A404219
S315080077500B1A98465C4632E61F2E00DDABE0202762
S31508007760BB1B9A4663465746BB40994613004F468D
S31508007770F3401F433B005746BA40571EBA411343CE
S315080077806246F240891898E62027BB1B9A4663464C
S315080077905746BB40994613004F46F3401F433B00EC
S315080077A05746BA40571EBA4113436246F240891AF1
S315080077B09CE7834B9F425FD080252D047342294363
S315080077C020E7002E0CD1002F00D1D0E05C466146A0
S315080077D091467B4DCDE67A4FBE421CD01E0065E62B
S315080077E0002F18D0C0084E0706438020C90800039A
S315080077F0014208D06346DC08044204D12100DA4677
S31508007800D2085E071643F300994601245346C90079
S31508007810720F11431C406A4DABE61D00002200277B
S31508007820B4E6002D59D10B00034300D1D6E6731CEC
S3150800783000D1B2E0624B9F421ED0F343382B6FDC77
S315080078401F2B00DD97E020250E00ED1AAE40B0464E
S315080078500600AA46DE40454635432E005546A84052
S31508007860D940451EA8418C440643B6189642924113
S31508007870514261443D0025E63D006146914678E661
S315080078800B000343002D00D055E6002BF5D06346C8
S31508007890134300D16DE68618864280416144404212
S315080078A0091800220B0200D4D0E6464B01351940D0
S315080078B0B2E5B1465DE633006746203BDF403B0054
S315080078C0202E05D04027BF1B6646BE403243904651
S315080078D04646721E96413343EFE5394B9F42CBD05D
S315080078E080252D0473422943A8E70843411E884191
S315080078F0A2E6002F00D13CE66346861ACF1AB042AC
S315080079009B415B42FB1A98461B024ED5161A6346E4
S31508007910B2429241591A5242891A5C4600227BE5C4
S3150800792001430E00711E8E419FE71D000E00203D8B
S31508007930EE40B046202B04D04025EB1A9940084368
S31508007940814648464346411E8841184374E600224C
S31508007950002417E6161A6346B2429241591A524251
S31508007960891A3D0025E561469146154D01E68022B6
S315080079700024120379E61D000E00203DEE40B046B5
S31508007980202B04D04025EB1A9940084381464E46E1
S315080079904346711E8E411E4367E7861896429B41F1
S315080079A061445B42C9183D008CE547463743CED053
S315080079B007224146324049E600273A00E6E5C04636
S315080079C0FF070000FFFF7FFF30B5144D0A034B0089
S315080079D0120B5B0DC90F0024AB4211DD104CA342FC
S315080079E010DC8024640322430E4CE41A1F2C0CDDA1
S315080079F00D48C31ADA4013005C42002900D11C0066
S31508007A00200030BD094BCC18FAE7094DE040AC46DA
S31508007A1063449A4013000343EEE7C046FE030000A2
S31508007A201D0400003304000013040000FFFFFF7F5D
S31508007A30EDFBFFFF70B500282DD0C317C5185D40B4
S31508007A40C40F280000F030F8154B1B1A5B055B0DB8
S31508007A500A2815DD0B38854000222D032D0B002141
S31508007A6010002D030A0D2D0B12052A430D4D1B057B
S31508007A702A4013435B00E4075B082343190070BDE3
S31508007A8002002900153291400A000B21081AC54048
S31508007A902D032D0BE3E70024002300250022DEE753
S31508007AA01E040000FFFF0F801C2101231B049842BF
S31508007AB001D3000C10391B0A984201D3000A083971
S31508007AC01B09984201D30009043902A2105C401828
S31508007AD07047C046040302020101010100000000CC
S31508007AE00000000041607047037A8B4207D00368A4
S31508007AF0426801330360934200D90172704700233C
S31508007B000360FBE7007A7047F8B5CE46474680B56E
S31508007B1004009146884601F0B1FC0023134D144E2B
S31508007B202B604B4634600127002B18D000214346B2
S31508007B3040465B185A78415C1202D31701200A4363
S31508007B40210001F0E3FC434258412B684042991C4E
S31508007B50336807409C1C296034604945E7D301F027
S31508007B60A1FC38000CBC90469946F8BD6C0700206D
S31508007B707007002010B500F09FFB0D4C0022200076
S31508007B80082100F027FE00220C21200000F022FE2A
S31508007B90084C200001F088F9200001F093FA082229
S31508007BA00549200001F038F9044802F007FF10BD26
S31508007BB0040D0020080E0020B0090020C40C002087
S31508007BC010B51A491A4800F0A5FA00F0B5FF194C85
S31508007BD02368984202D000F0AFFF206000F0ACFFA7
S31508007BE0154C2368C01A09281CD800F0A5FF134CA9
S31508007BF02368C01A632811D800F09EFF104C23682A
S31508007C00C01AF423FF33984207D900F095FF802164
S31508007C102060C9010B4801F0DBFD10BD00F08CFFA8
S31508007C202060E9E700F088FF2060DEE7C009002051
S31508007C30C40A0020800700207C070020780700205F
S31508007C408407002000040048802110B5012289011C
S31508007C50034801F0B7FD0A22024B1A7010BDC04650
S31508007C6000040048740700200C4B026810B59A42BD
S31508007C7000D010BD00F0AAFB00F0C6FB084A137836
S31508007C80002BF6D0013BDBB21370002BF1D180211B
S31508007C9000228901034801F095FDEAE70048014002
S31508007CA0740700200004004870B50E00184905F056
S31508007CB07DF8841D002C0ED11AE005F009F8C1B232
S31508007CC00C2D15D8012913D8280000F011FBA3782C
S31508007CD00D2B19D00334200004F0FAFF0138C5B281
S31508007CE02D21200005F054F8040001300028E4D1C5
S31508007CF006220849300005F031F83000FEF70EFA82
S31508007D0080235B00F05070BD05220349F2E7C046A8
S31508007D109CD00008BCD00008C4D0000870B50E007E
S31508007D20184905F043F8841D002C0ED11AE004F01A
S31508007D30CFFFC1B20C2D15D8012913D8280000F0A1
S31508007D40F7FAA3780D2B19D00334200004F0C0FFEE
S31508007D500138C5B22D21200005F01AF804000130BB
S31508007D600028E4D106220849300004F0F7FF300065
S31508007D70FEF7D4F980235B00F05070BD0522034955
S31508007D80F2E7C046ACD00008BCD00008C4D0000852
S31508007D90F0B5DE4657464E4645460400E0B5A9B05E
S31508007DA008AE402289463000002104F0E0FF402258
S31508007DB0002118A804F0DBFF2000424904F0F6FF72
S31508007DC00823841D00279A46002C01D124E0474643
S31508007DD0200004F07DFFC0B2451EEDB20C2D1BD865
S31508007DE0F055280000F0B6FA6B4660229B18D85565
S31508007DF07B1C9846AA459B415B42E3185C1C5B7852
S31508007E000D2B16D00134002CE1D129B03CBC90468C
S31508007E109946A246AB46F0BD06222B49484604F0D1
S31508007E209DFF4846FEF77AF980234A465B00D05004
S31508007E30EBE700231C22002101A8009304F097FF1A
S31508007E4005222249484604F089FF214B00249A4618
S31508007E50204B9B460A226946305D04F07BFF484664
S31508007E60FEF75CF96946484404F089FF0222514648
S31508007E7004F074FF60226B469B186946185D563AF3
S31508007E8004F068FF4846FEF749F96946484404F095
S31508007E9076FFA74203D00222594604F05FFF013459
S31508007EA0A045D7D14846FEF739F94B4604000322C8
S31508007EB01818094904F052FF80234A4602345B0029
S31508007EC0D450A2E7A4D00008BCD00008CCD0000843
S31508007ED0D4D00008D8D00008DCD00008F0B5D646C3
S31508007EE046464F468846C0B5274904F05FFF851DBC
S31508007EF0002D35D0254B9A46254B994606E07B79C9
S31508007F007D1D0D2B24D00135002D35D0280004F019
S31508007F10DFFE2D21C4B2280004F03AFF661E0700D2
S31508007F200130F6B200281BD004F0D2FE093C85B217
S31508007F30012C15D8554513D82900300000F01AFA37
S31508007F404D45DCD8632D06D93B793D1D0D2BDAD17D
S31508007F500522104906E0092D13D8BD1CBB78D0E7C9
S31508007F6006220D49404604F0F9FE4046FEF7D6F8CB
S31508007F70802342465B00D0501CBC90469946A246D8
S31508007F80F0BDFD1CFB78BCE794D00008E40C0000AB
S31508007F90E7030000C4D00008BCD00008F0B5DE46F0
S31508007FA057464E4645460400E0B5B9B008AE4022ED
S31508007FB089463000002104F0DAFE8022002118A844
S31508007FC004F0D5FE20004A4904F0F0FE0823841D7B
S31508007FD000279A46002C01D125E04746200004F0E8
S31508007FE077FEC0B2451EEDB20C2D1CD8F055280000
S31508007FF000F0DAF96A4660217B005218D0527B1CE1
S315080080009846AA459B415B42E3185C1C5B780D2B9E
S3150800801016D00134002CE0D139B03CBC90469946C4
S31508008020A246AB46F0BD06223249484604F096FE03
S315080080304846FEF773F880234A465B00D050EBE7C4
S3150800804000231C22002101A8009304F090FE0522BB
S315080080502949484604F082FE284B00249A46284BB4
S3150800806018AD9B460A226946305D04F073FE484601
S31508008070FEF754F86946484404F081FE0222514648
S3150800808004F06CFE0023E85EFFF7D4FC1D4A1E4B85
S31508008090FEF7E0FE1D4B0022FFF74EF9FFF794FCB2
S315080080A000B269460A22288004F054FE4846FEF7C4
S315080080B035F86946484404F062FEA74203D0022216
S315080080C0594604F04BFE01340235A045CAD148464C
S315080080D0FEF724F84B460400032218180C4904F04E
S315080080E03DFE80234A4602345B00D45094E7C046DE
S315080080F06CD00008BCD00008B4D00008D4D0000862
S31508008100D8D00008B6B7B90305661440002DC44098
S31508008110DCD0000870B580267600835982B004004A
S315080081200D00002B65D0574A0188914204D1C21828
S31508008130511E09780A290DD000F0FEFC524B1B6827
S31508008140C01A052844D8802464002959002948D132
S3150800815002B070BD023A12780D2AEDD100224B49C1
S31508008160C254FDF7D1FF00284ED049492000FDF73B
S31508008170CBFF002869D047492000FDF7C5FF002836
S315080081803CD0412100234448E25C8A4244D0412243
S3150800819000234248E15C914243D0412200234048F3
S315080081A0E15C914242D0412200233E48E15C914283
S315080081B041D0412200233C48E15C914240D0102244
S315080081C03A49280004F0CAFD80230F225B00EA50D2
S315080081D0802300225B00E25080246400295900298C
S315080081E0B6D089B2280004F06FFB0028B0D1285118
S315080081F0AEE700F0A1FC244B1860A4E70190042226
S3150800820001A92B48FFF780FC05222A49280004F01B
S31508008210A5FD0423AB51DBE70133062B18D0195C07
S31508008220B2E70133062B18D01A5CB3E70133062BE5
S3150800823018D01A5CB4E70133062B18D01A5CB5E7D8
S315080082400133062B18D01A5CB6E700F0C9FFBFE762
S3150800825029002000FFF728FDBAE729002000FFF7CC
S315080082605DFDB5E729002000FFF792FDB0E729007C
S315080082702000FFF733FEABE729002000FFF78EFE4C
S31508008280A6E7C046415400008807002074D00008BD
S3150800829088D000087CD000089CD00008ACD0000824
S315080082A0A4D0000894D000086CD00008E0D00008DC
S315080082B000580008C4D0000870B50B4C25009C3542
S315080082C0200005210C34FFF70DFCAC42F8D1074C11
S315080082D025006035FC212000002289050C3400F0B9
S315080082E0B1F8AC42F6D170BDC80B0020640C002072
S315080082F030B5040087B00D000C2801D8012901D932
S3150800830007B030BD1022002102A804F030FD074B4B
S31508008310E4001A1952680192012D04D0185901A9CE
S3150800832001F058F9ECE70295F8E7C046F0D00008E6
S3150800833010B50C2801D8012900D910BD044BC0007E
S315080083401A189488C0580A00210001F03BFAF4E78D
S31508008350F0D0000810B500230C2807D843001818D9
S31508008360034B8000C018FFF7CDFB0300180010BDB3
S31508008370C80B00200A4B10B5994203D8082808D024
S31508008380092800D010BD0A0006480C2100F022FA80
S31508008390F8E70A000348082100F01CFAF2E7C0468D
S315080083A0E40C0000040D0020020010B50020072A86
S315080083B009D850008018044B8000C01800F072F8E5
S315080083C0FDF77AFF80B210BD640C002070B50B4C27
S315080083D0802126000A4D603609020A4802E0206814
S315080083E06168083489B201F0E7F901002800FFF74F
S315080083F07BFB0C35A642F2D170BDC046F8D000080A
S31508008400C80B002000080048F8B50B4C0B4F260097
S315080084103D0060362888FEF7DDFC011C20000C3480
S3150800842000F02EF80235B442F4D139000822044887
S3150800843000F0F2FCF8BDC046640C0020B00900202C
S31508008440080E002070B50C1C05000021201C161C07
S31508008450FDF728FF002806D0FE21201C8905FDF718
S315080084600DFF002801D1002070BDFE202C60211CC4
S315080084708005FEF7CBFAAE6068600120F4E7C046D7
S3150800848070B504000E1C41688068FEF78DF92168F6
S31508008490051C301CFEF788F9011C281CFDF724FF73
S315080084A0A06070BD8068704710B596B0282200217C
S315080084B00CA804F05CFC1022002101A804F057FC6B
S315080084C01422002105A804F052FC11230A93103B3C
S315080084D00B930F930F33109380235B021393802320
S315080084E002245B030AA81294149301F0F9FD0723EA
S315080084F002940024012101A801930394049402F034
S3150800850073F8054B05A8059380230794099302F091
S3150800851007F916B010BDC04601000200F0B5D646F0
S3150800852046464F46C0B5002690B000F0E9FAFFF778
S31508008530BBFF974B974802CBB20001368150302ECD
S31508008540F9D101270321944D8846AB6909A83B4315
S31508008550AB61AB69E0243B400193019B8F4B24023E
S315080085601A688A431A601A680A431A600021142294
S3150800857004F0FDFB80216A6909030A436A616B6995
S3150800858087480B4080210393039B6A69C9030A4302
S315080085906A616B690B4080210493049B6A698902AE
S315080085A00A436A616B690B4080210593059B6A69DA
S315080085B0C9020A436A616B6900220B4006932100CF
S315080085C0069B01F0FFF8774B0022190076489A4679
S315080085D001F0F8F8812390201B0200221900C0053B
S315080085E0994601F0EFF80994002409A96C480A97FE
S315080085F00B940C9400F0EEFF534609A96A480993B8
S315080086000A970B940C9400F0E5FF90204B4609A9B5
S31508008610C00509930A970B940C9400F0DBFF634896
S31508008620634B46620360E1235B0243600C234361AC
S3150800863080231B02C3618026802376019B01C363C6
S3150800864086638460C46004618461046202F080FE0B
S3150800865004F0D2F86B6900223B436B616B69002119
S315080086603B4002930920029B00F082FD092000F09E
S31508008670ABFD0C22002109A804F079FB4D4D4E4BA9
S3150800868028002B6004236B619946C223FF33EB61F4
S315080086909E3BFF3BEC546C60AC60EC602F612C7623
S315080086A06C76AC76EC762C62AF6200F009FB0A9623
S315080086B0072609A928000B96099400F083FC09A946
S315080086C02800099700F07EFC022309A928000993CF
S315080086D000F078FC434609A92800099300F072FCCB
S315080086E04B4609A92800099300F06CFC052309A943
S315080086F02800099300F066FC062309A928000993B7
S3150800870000F060FC09A92800099600F05BFC082225
S31508008710002107A804F02BFB1C22002109A804F05D
S3150800872026FB264D264B79362B60264B2800EB6018
S315080087306C60AC602C61AE6102F09AFA07A9280059
S315080087400794089402F056FB6023082209A928001A
S3150800875009930A940B940D9402F0E4FA0C2209A9E1
S31508008760280002F0DFFA280000F0E6F81648174B52
S31508008770846003602F234360154B0461C360446122
S31508008780866102F05BFAFFF7F5F9FFF719FAFCE7DD
S3150800879000600008000000200010024000000140B0
S315080087A000080048F8F3000000040048440D0020C3
S315080087B000380140080E002000240140040D002066
S315080087C000040040E30C0000C40C002000480140EF
S315080087D0E703000070B588B004000D0016000021FC
S315080087E0142203A804F0C3FA60232A0001A9200072
S315080087F00193029602F096FA2900200002F01EF96B
S3150800880008B070BD7047C04601220A4B82B099690C
S315080088101143996199690A4080210092009ADA69A0
S3150800882049050A43DA61DB690B400193019B02B0F3
S315080088307047C0460010024030B5040089B01422C3
S31508008840002103A804F093FA1D4B22689A4201D02E
S3150800885009B030BD80201B4B80009969014399619E
S3150800886080219A69890202400192019A5A699020E8
S315080088700A435A615B69C0050B400293029BFF23BA
S3150800888003A90393FC3B049300F0A4FE80220E4D3B
S315080088900E4BEA6080322A6180222B600023D200C8
S315080088A028006B60AB606A61AB61EB6100F0C2FCEB
S315080088B0002802D125636C62CAE7FFF7A3FFF9E730
S315080088C00024014000100240C40D002008000240A8
S315080088D0074B026882B09A4208D10223054AD16939
S315080088E01943D161D26913400193019B02B07047C5
S315080088F0000400400010024000B50D4B026883B02A
S315080089009A4201D003B000BD80200A4AC00291698C
S3150800891001439161936900210340019300221620C7
S31508008920019B00F025FC162000F04EFCEAE7C04645
S31508008930004801400010024010B5040086B0142219
S31508008940002101A804F013FA0D4B22689A4201D0BF
S3150800895006B010BD80200B4AC0025169014351611F
S31508008960536901A903400093009B03230193013B2C
S3150800897002930548013B059300F02CFEE8E7C04644
S3150800898000040040001002400004004810B504002E
S3150800899088B01422002103A804F0E9F9174B2268CD
S315080089A09A4201D008B010BD8020154BC0019969C4
S315080089B00143996180219A69890202400192019ACC
S315080089C05A6990200A435A615B69C0050B400293B5
S315080089D0029BC023DB00039302230493013306930F
S315080089E003A9023B079300F0F5FD002200211B2096
S315080089F000F0BEFB1B2000F0E7FBD3E70038014080
S31508008A00001002407047C046FEE7C0467047C046A1
S31508008A107047C04610B500F083F810BD10B502487F
S31508008A2000F0C0FC10BDC046C40D002010B50248B9
S31508008A3002F010F810BDC046C40C002010B502485C
S31508008A4002F010FA10BDC046440D002010B50248C9
S31508008A5000F0FCFF10BDC046041B00207047C0464E
S31508008A600D4885460D480E490E4A002302E0D458A3
S31508008A70C4500433C4188C42F9D30B4A0B4C002358
S31508008A8001E013600432A242FBD3FFF7E7FF04F0CC
S31508008A9025F9FFF743FDFEE700400020000400200B
S31508008AA04C070020A8D3000850070020781D002096
S31508008AB0FEE7000010B50400FA200E4B8000197876
S31508008AC0FDF734FB0C4B01001868FDF72FFB00F08F
S31508008AD095FB0123002801D1032C01D9180010BDEC
S31508008AE000222100013800F043FB044B1C600023E0
S31508008AF0F4E7C0460404002000040020080400200F
S31508008B001021064A10B5136800200B431360FFF7BF
S31508008B10D1FFFFF779FE002010BDC04600200240B5
S31508008B20034A044B11681B785B1813607047C046EC
S31508008B30480E002004040020014B18687047C04600
S31508008B40480E00200323026870B5916804000B40A4
S31508008B50012B01D0002070BD11680B420ED00523F1
S31508008B6091680B40012B0DD01022A36B01201343F3
S31508008B70A363E36B0F3A1343E363ECE7D3681B0481
S31508008B80EDD4E7E70221936801250B43936003239D
S31508008B901360FFF7D1FF060004E0FFF7CDFF801B47
S31508008BA0022804D823689B681D42F6D1D2E7102212
S31508008BB0A36B01201343A363E36B1D43E563CAE775
S31508008BC0002370B5026882B00193916803330400EC
S31508008BD00B40012B31D09168204B194222D101213B
S31508008BE093680B4393601E4B1E491868FDF79EFA5F
S31508008BF00190019B002B05D0019B013B0193019B32
S31508008C00002BF9D1FFF798FF0125060004E0FFF7CE
S31508008C1093FF801B022818D823681B681D42F6D0CC
S31508008C20002008E010220120A36B1343A363E36B23
S31508008C300F3A1343E36302B070BD11680B42EFD1DC
S31508008C40D3681B04C7D50020F5E71022A36B0120C3
S31508008C501343A363E36B1D43E563ECE7170000804A
S31508008C600004002040420F000422036870B599688A
S31508008C7004000A4210D099680A420FD1FFF75CFF38
S31508008C800425060004E0FFF757FF801B02280DD8CD
S31508008C9023689B681D42F6D1002070BD9A6892072A
S31508008CA0ECD410219A680A439A60E7E71022A36B6E
S31508008CB001201343A363E36B0F3A1343E363ECE723
S31508008CC0F8B5041E00D176E0836B002B69D0A36B40
S31508008CD0DB0605D510220120A36B1343A363F8BD59
S31508008CE0042023689A681040F4D1A26B47490A40C9
S31508008CF00631FF310A43A263032299680A40012A12
S31508008D0074D01821DA688A43A1680A43DA601A69B6
S31508008D106168920092080A431A61DA683C490A4077
S31508008D20DA60217E627E8903D2031143A26AA67E97
S31508008D30013A551EAA411503E268770311432269D1
S31508008D403943022A00D104202422A25C52000A4395
S31508008D50E17E2A430243012942D0C220E169FF305D
S31508008D60814202D0206A01430A43D968E56A114361
S31508008D70D960802149058D421FD0691E06291CD954
S31508008D80DB6824490B40934220D01222A36B0120B2
S31508008D909343023A1343A363E36B0F3A1343E36324
S31508008DA09DE73422C3638354FFF746FDA36BDB06B6
S31508008DB000D58FE794E7012091E707215869884392
S31508008DC058615869294001435961D9E700230322AC
S31508008DD0E363A36B00209343023A1343A3637EE73E
S31508008DE0002E0AD1802149020A43B6E719680A42C9
S31508008DF093D1DA68120490D483E72025A06B284320
S31508008E00A063E06B0143E163A7E7C046FDFEFFFFF1
S31508008E101902FEFFE7FF3F8370B50D0001680400E5
S31508008E208B6816005B0735D43423C25C012A31D01F
S31508008E300122C254437E012B04D0FFF7C1FE00284D
S31508008E4027D12168A36B144A206B1A4080235B0044
S31508008E501343A36334220023E363A3540F4B243A3A
S31508008E6083620F4BC3620F4B03631C230B604B6873
S31508008E7013434B60CB680F3A1343CB602A0040314B
S31508008E80330000F00BFA04210020226893680B4394
S31508008E90936070BD0220FCE7FEF0FFFF258F0008F7
S31508008EA0998F0008A98F0008342370B5C25C0400A6
S31508008EB0012A23D00126C654FFF7D6FE051E04D084
S31508008EC034230022E254280070BD2268206BD36840
S31508008ED0B343D36000F022FA051E11D1102122688F
S31508008EE0200053688B435360FFF72CFE051EE7D11D
S31508008EF0A36B0A4A13401E43A663E1E70225E2E78D
S31508008F0040221021A36B200013432268A3635368F1
S31508008F108B435360FFF716FED2E7C046FEFEFFFFFF
S31508008F207047C0465021436A10B59A6B114203D068
S31508008F301B6B1B6B984710BD8022996B92000A43E6
S31508008F40C0219A631A680901D068084213D1997E2C
S31508008F50002910D1116809070DD5916849070ED463
S31508008F600C205168814351609A6B09490A400431C3
S31508008F70FF310A439A631800FFF7D2FFDBE7202187
S31508008F809A6B0A439A63DA6B1F390A43DA63F2E784
S31508008F90FEFEFFFF7047C04610B5406AFFF7FAFFAE
S31508008FA010BDC0467047C0464022406A10B5836B64
S31508008FB013438363C36B3C3A1343C363FFF7F2FF60
S31508008FC010BDC04600233422F0B583B00193835CFC
S31508008FD00400012B3ED00123C56A835402689068B9
S31508008FE0400709D520220120A36B1343A36334232A
S31508008FF00022E25403B0F0BD0E682D4F3000BC4687
S315080090004F68B3401038674526D0976A3B4393624A
S3150800901080235B059D420FD0013D062D0CD9072301
S315080090208D68516919408D4206D05169994351613D
S3150800903051692B400B435361012801D90020D6E71B
S315080090401C4B80221968102E1AD0D2030A431A60C4
S315080090500020CCE70220CDE7916A99439162012866
S31508009060ECD8411E884180214042C9030840124974
S31508009070104B8C461A686044104018600020B6E70A
S3150800908012040A431A600D4B0D491868FDF74EF88D
S315080090908300181840000190019B002BCED0019B3D
S315080090A0013B0193019B002BF9D100209FE7C046A5
S315080090B00110000008270140FFFF7FFF0004002081
S315080090C040420F00342370B5C25C0400012A4BD01D
S315080090D00122C2540368023299680A40012A05D15E
S315080090E019680A422FD1DA6812042CD4A26B1F49D8
S315080090F00A400631FF310A43A263DE68DA680131A5
S315080091008A43DA608022996812060A439A60FFF752
S3150800911013FD050004E0FFF70FFD401B022818D8D1
S3150800912023689A68002AF6DB03220020D9681640CD
S315080091300E43DE60A36B9343023A1343A3633423BF
S315080091400022E25470BD2022A36B01201343A363BF
S31508009150F5E71222A36B01209343023A1343A36354
S3150800916000223423E254EDE70220EBE7FDFEFFFF81
S31508009170FF22032330B51400C5B22B40DB009C4008
S3150800918089010A40E4439A4000280BDB0C4B80080F
S315080091909C46C023800060449B00C1580C40224373
S315080091A0C25030BD0F2307492B408C46083B9B080D
S315080091B09B006344D9690C402243DA61F1E7C04653
S315080091C000E100E000ED00E0002805DB1F23184061
S315080091D01E3B8340014A13607047C04600E100E029
S315080091E0BFF34F8F034B044ADA60BFF34F8FC04675
S315080091F0FDE7C04600ED00E00400FA050A4A431EF2
S31508009200012093420ED8C021084A09485360036AD0
S3150800921009061B021B0A0B43036200230020936006
S31508009220073313607047C046FFFFFF0010E000E0F9
S3150800923000ED00E070B5041E27D021250223435512
S315080092400068134A0368A1681A4063680B43E1681B
S315080092500B4321690B4361690B43A1690B43E16920
S315080092600B43134303600B4B14219C466044FCF7E5
S315080092705DFF094B0122E363002380002064002080
S31508009280A36362551F32A35470BD0120FCE7C04694
S315080092900FC0FFFFF8FFFDBF00000240F0B5202514
S315080092A0445D012C29D0012421264455845DE4B26D
S315080092B0012C1ED11E3D8555002585630568076C62
S315080092C02E68A643BC402E60C66B74606B6043680C
S315080092D0102B14D0C36AA960EA60002B14D00E22A2
S315080092E02B6813432B60012200202B6813432B6045
S315080092F0F0BD002343550220FAE70220F8E7C36AC7
S31508009300AA60E960002BEAD10A222B6813432B6076
S315080093102B68063A93432B60E5E7C046212330B510
S31508009320C25C022A06D000221D3B83631C33C2544A
S31508009330012030BD0E240268056C1168A143116036
S31508009340012114688C4314600C00AC40C26B546055
S31508009350C15400222023C2540020EAE7212370B515
S31508009360C25C022A03D01D3B8363012070BD0E2414
S315080093700268056C1168A1431160012114688C43C9
S3150800938014600C00AC40C26B5460C1540022202308
S31508009390C254436B002B02D098470020E6E7002012
S315080093A0E4E7C046F8B504242600036CC56B9E4066
S315080093B02A6801680F6832420DD03C420BD00B6810
S315080093C09B0602D40B68A3430B60C36A6E60002B2E
S315080093D000D09847F8BD022426009E40324214D099
S315080093E03C4212D00B689B0606D40A220B689343AC
S315080093F00B602123093AC254202300226E60C2540E
S31508009400836A002BE6D09847E4E7082426009E40A6
S315080094103242DFD03C42DDD00A680634A2430A60F5
S31508009420012211009940212369608263C2540022F7
S31508009430013BC254036B002BCCD09847CAE7C04601
S315080094400C4B10B5DA680023D20605D502210A4A64
S31508009450D3690B43D3611023064AD16804220A4212
S3150800946005D0012404481343C1692143C161014A57
S31508009470D36010BD00200240500E0020064B00208D
S315080094801A69120606D5054A5A60054A5A601869C5
S315080094900006C00F7047C0460020024023016745FA
S315080094A0AB89EFCD8021034A002013690B43136172
S315080094B07047C04600200240F8B50500FFF73CFBA0
S315080094C0114C0700012601E06B1C12D1E3681E420D
S315080094D0FAD12023E268134214D10B4BDA68D2067C
S315080094E003D4DB6800205B0702D5FFF7A9FF01203C
S315080094F0F8BD002D04D0FFF71FFBC01BA842E5D915
S315080095000320F5E7E360E8E700200240F0B54E46A1
S315080095105746DE464546E0B59A4683B02A4B019241
S3150800952099461B7E04000E00012B48D001254B46A8
S3150800953026481D76FFF7C0FF002836D1012C40D0FB
S31508009540023C63425C4104236442AC43A0469C4609
S31508009550E044002300259B4618E05346D3404A467C
S31508009560594601271A4CD16122699BB23A432261B6
S3150800957016483380FFF7A0FF2369BB432361002801
S3150800958013D10135EBB2023698450ED920222B01AC
S3150800959052429A18E1D520225146D21A91400A0021
S315080095A00199D9400B001343D9E700234A4613769D
S315080095B003B03CBC90469946A246AB46F0BD022095
S315080095C0F6E701239846C4E7500E002050C3000072
S315080095D000200240F0B54E46DE4657464546E0B501
S315080095E08946096885B0002900D17EE06C4B0022C7
S315080095F09B466C4B8A4698460125544695402C4016
S3150800960000946ED04B46596810230F009F4301976C
S31508009610022F00D170E0036856009C460323B3402E
S315080096206446DB431C40270003240C40B440A44690
S315080096303C0067463C43019F0460013F012F00D868
S3150800964077E0C5682B404D46AD68B5402B43C360EF
S3150800965080235B05194244D05B4601245D460326F8
S315080096600F279B6916402343AB61AB69B6002340BD
S315080096704D4CB740A44690240393039B93089B0044
S3150800968063449D68E405BD43A0420ED0474FB842E7
S3150800969000D17CE0464FB84200D174E0454FB8424D
S315080096A000D178E00527B7403D439D604346009CBE
S315080096B01B68E543CC034ED444462B4023606368BD
S315080096C08C034FD444462B406360A368CC0250D425
S315080096D044462B40A360E368890251D42B40414697
S315080096E0CB6053460132D34086D105B03CBC904688
S315080096F09946A246AB46F0BD07260F241640B6008B
S31508009700B440D3089B00C3181F6AA7434C46246974
S31508009710B44026003E431E6203235600B340DB4393
S3150800972007681F40BC4603270F40B74064462743D7
S31508009730076087684C461F40BC46E7686446B740E2
S315080097402743012487604768AF430D0925409540A4
S315080097503D43456075E7009C2343444623606368A0
S315080097608C03AFD5009C234344466360A368CC02B0
S31508009770AED5009C23434446A360E3688902ADD571
S3150800978000990B43ABE70227B7403D438DE7012419
S31508009790B440254389E70324B440254385E7C046FA
S315080097A00010024000040140000001400004004887
S315080097B000080048000C004800690840411E88411E
S315080097C0C0B27047002A01D1816270478161FCE707
S315080097D04369194201D18161704709048161FBE738
S315080097E070B5040086B000285AD0304BC35CDBB293
S315080097F0002B4FD003222D4B2068E25401F0E6FDE2
S31508009800606800282CD00023012600215A01A218DE
S31508009810150029352E70013D2B70D386E9709163AA
S31508009820D1639A1C01335201DBB211518342EDD345
S31508009830002200215301E3181D002A35FF3529703F
S315080098403D33013D2A70E970FF33103529601960F0
S31508009850130001320A335B01D2B219518242E9D3AD
S3150800986023006A46103323CB23C203CB03C2A26864
S31508009870E3686168206801F0B3FD24230022E254FE
S315080098800A4B0132E254E3690025012B0AD028006D
S3150800989006B070BD8A229200835403F0B3F8A9E794
S315080098A00125F4E7200000F005FCF0E72902000096
S315080098B070B58A25AD00435D0400012B0BD001234A
S315080098C04355006802F05AF9206801F075FD002337
S315080098D00020635570BD0220FCE7C04670B58A2596
S315080098E0AD00435D0400012B0AD001234355233301
S315080098F0C154006802F03AF900230020635570BD90
S315080099000220FCE770B507250D4049B2040068013E
S31508009910002921DB01000026201829312A30FF31D1
S31508009920FF30611806700A614A780D70CB70002AFC
S3150800993000D0CD81022B01D100230B718A25AD0001
S31508009940635D012B10D001232068635501F05EFD8D
S3150800995000230020635570BD010001262018283118
S31508009960293061180670DEE70220F4E707220A406C
S3150800997049B270B553010400002917DB19002931D3
S31508009980FF314118C3188A2500202A33FF3318707F
S31508009990AD000A70635D012B15D00123206863555D
S315080099A001F09CFE00230020635570BD1900283184
S315080099B04118C3188A25012029331870AD000A708A
S315080099C0635D012BE9D10220EFE7C04670B5072495
S315080099D021404D01441926003D36FF363260A0224B
S315080099E05200A35000230432A350220029342A32FD
S315080099F0FF32FF341370217029002931FF314118D5
S31508009A00006801F013FF002070BDC0460B00072157
S31508009A1019400A31490140184068704770B5072453
S31508009A2021404D0144192364002363642300E26343
S31508009A300122293328341A70217029002831411847
S31508009A40006801F0F3FE002070BDC046F0B5DE46A2
S31508009A5057464E464546E0B5040085B0006802F014
S31508009A6095F8030400D5C8E0206802F08FF843058E
S31508009A7000D5A8E0206802F089F8430400D589E0FB
S31508009A80206802F083F8830400D57CE0206802F0A1
S31508009A907DF8C30442D4206802F078F803055AD446
S31508009AA0206802F073F88022024220D044202368FE
S31508009AB0195A9143E1321952FF32A15C002900D0AC
S31508009AC06FE004254031585A284308255852585AF9
S31508009AD0284358523F39A15454229A5A3C23920893
S31508009AE0134099229200A350200000F0F7FA20684C
S31508009AF002F04CF883055CD4206802F047F8C305E9
S31508009B0005D544222168C8488B5A03408B5205B0B4
S31508009B103CBC90469946A246AB46F0BD402304207D
S31508009B202268D15A8143D152D15A04308143D15245
S31508009B3098239B00E25C012A00D1D7E1200002F0BD
S31508009B40CDFF44222068B949835A0B40835202F05C
S31508009B501DF80305A4D5402308212068B44DC25A30
S31508009B600A434421C252425A2A4042520421C25A46
S31508009B700A43C25202F00AF8C30400D590E720004F
S31508009B8002F09AFF8CE744222068AA49835A0B40C0
S31508009B9083527CE744222068A749835A0B408352A4
S31508009BA06FE7200002F088FF206801F0EFFF8305C9
S31508009BB0A2D544222168A1488B5A03408B52200023
S31508009BC002F060FF98E744228A2521689C488B5A50
S31508009BD0AD0003408B52200002F05CFF635D012B51
S31508009BE000D147E70123002663552333E6540021B5
S31508009BF0206801F0BBFF66553CE70F239846713392
S31508009C0044279B462068C35B1BB2002B00DB2CE76E
S31508009C104546C35B9BB21D404AD1DB0600D4D1E062
S31508009C2003889BB21A0500D520E11BB2002BEADA9D
S31508009C300388844A25001340802213430380502357
S31508009C40C25A814B2935C61894235B00E15C9219E8
S31508009C50C9008B5AFF359B059B0DEB6111D06969CD
S31508009C6000290ED0EA8801F097FFE9696A698C46EF
S31508009C70624420006A61002102F0EEFE2068724B01
S31508009C80C61850232A69C35A9B19002A00D058E1DE
S31508009C901A886E4911406E4A0A431A8003886D4A2B
S31508009CA01A40C0239B0153406B4A13430380AAE71B
S31508009CB0AB009946C3181E88B6B232B2002A2ADB10
S31508009CC05B4633429FD04B46C3181A8863496D01D9
S31508009CD00A408021651909020A4329001A8050237F
S31508009CE02831C25A0B78DB00C0185D4B80189C4699
S31508009CF0EB6B60449C4602882B6C9205920D6A6455
S31508009D006244EA6309782000002B00D088E002F05C
S31508009D10AFFE206877E71A884A490A4080210A4335
S31508009D201A806B01E11801930B003533FF331B785A
S31508009D300291002B00D1BCE094235B009C46029B59
S31508009D409A46D44463461A7803939300C31819882D
S31508009D50D200490400D4D4E05021415A8C464049E7
S31508009D6062448C461218624412889205920D9246F5
S31508009D7000D0FFE01A883B490A403B490A431A804B
S31508009D80A222019B5200E0188358534483500300D3
S31508009D903D33FF331A6852441A60A0235B00C35848
S31508009DA0002B00D1A9E001003930FF3029310068C5
S31508009DB0FF310978824500D3CCE0200002F04CFE42
S31508009DC020687DE70388254A002113408022120275
S31508009DD0134303805023C25A283BE35CDB00C018B8
S31508009DE01F4B80189C46E26B60449446038820000B
S31508009DF09B059B0D63646344E36302F039FE2423E9
S31508009E00E25C2068002A00D1FDE6226C002A00D018
S31508009E10F9E68025E15C2943343D4153E254F2E6F4
S31508009E20FFF7FCFD2068EEE6FFFEFFFFFFEFFFFFF2
S31508009E30FFF7FFFFFFDFFFFFFFBFFFFFFFFDFFFF8E
S31508009E40FFFBFFFF8F0F000006040000FF83FFFFE4
S31508009E500080FFFF8FBFFFFF808000000F8FFFFF8E
S31508009E60020400008F8FFFFFC08000005023C25AF3
S31508009E70D833E35C8C21DB00C3189B183F4A890062
S31508009E809446220063441B8829329B059B0DFF32AA
S31508009E90D3616118D28801F07FFE22683849138899
S31508009EA020000B4080210B43138002F0CBFD206875
S31508009EB0A9E65033C25A0B002933FF331B78DB005F
S31508009EC09B182E4A1B18944663441B889B059B0DBA
S31508009ED09A4600D154E70B003D312F33FF33FF314B
S31508009EE01A880968534601F057FE49E700220021FF
S31508009EF0E254200000F0F2F820E62930FF3001781D
S31508009F005BE75021415A8C461C4962448C4612181C
S31508009F10624412889205920D924600D12AE7029968
S31508009F200B0033333D31FF33FF311A880968534636
S31508009F3001F032FE2268039B94461B789B0063441B
S31508009F4018E73E2A0BD8012551082A4089188902A4
S31508009F501980A3E62000FFF739FD2068B0E61F2523
S31508009F6051092A4055426A41891A064A890211430B
S31508009F70198093E602990B003133D3E706040000F3
S31508009F808F0F00000080FFFF70B5050007246B687F
S31508009F900C4001209C421FD84BB2002B1DDB00222F
S31508009FA04B011900EB182A33FF331A7001228A2352
S31508009FB02931FF3169188A700C709B00E85C01280A
S31508009FC01AD0EA54286801F06BFD002C16D08A23B3
S31508009FD0002200209B00EA5470BD63011900EB18AB
S31508009FE02933187001228A23283169188A700C705F
S31508009FF09B00E85C0128E4D10220EDE78C239B0056
S3150800A000E918286801F0C6FDE1E7C04670B5040006
S3150800A0100F2362680B40012093421DD807220A408D
S3150800A02049B25301002918DB1900002000268A25A9
S3150800A0302931E318FF312A336118FF331870AD0050
S3150800A0408E700A70635D012B15D001232068635555
S3150800A05001F046FD0020665570BD190000268A25C8
S3150800A0602831E318611829331870AD008E700A700C
S3150800A070635D012BE9D10220EEE7C04610B50C0658
S3150800A0800ED50724214049012831401899B2002AE3
S3150800A0900DD001221B0C027301814381002010BDE3
S3150800A0A049012931FF31401899B2002AF1D10273CA
S3150800A0B0C180F3E79A2301219B000268C150002161
S3150800A0C0083BC15454230120D15A01430220D152DE
S3150800A0D0D15A0143D15200207047C0467047C04646
S3150800A0E0F0B5CE46474680B5040083B0002800D1B7
S3150800A0F0BAE00368DA0735D50C21C64842680A4033
S3150800A100042A00D125E142681140082900D117E147
S3150800A1106368012B0FD0002B00D13FE1052B00D13E
S3150800A120A7E1BC4BBC491A680A401A601A68BB49C1
S3150800A1300A401A6005E08023B64A5B0211680B43A1
S3150800A1401360FEF7F9FC80250700B24EAD0205E064
S3150800A150FEF7F2FCC01B642800D91DE133682B42C8
S3150800A160F6D023689A0745D41A0717D5E369A94D87
S3150800A170002B00D1D1E001226B6A022613436B62E1
S3150800A180FEF7DAFC070005E0FEF7D6FCC01B02283E
S3150800A19000D901E16B6A1E42F6D023685A0700D43B
S3150800A1A085E080229B4B5205D9690025114207D1CB
S3150800A1B0D96901351143D961DB691A400192019BBE
S3150800A1C08026974F76003B68334200D1D4E0A368D7
S3150800A1D0012B4FD0002B00D1F9E0052B00D154E11B
S3150800A1E001218C4B1A6A8A431A621A6A03318A4316
S3150800A1F01A6243E00C228749486802422BD0486815
S3150800A2000240082A1FD0E368824D002B00D1F8E0EF
S3150800A21001222B68022613432B60FEF78DFC0700EC
S3150800A22005E0FEF789FCC01B022800D9B4E02B68BC
S3150800A2301E42F6D0F8212A6823698A43DB001343B5
S3150800A2402B60236890E74A68C02149020A408021AA
S3150800A25009028A42D7D16F4A1268920700D482E06F
S3150800A260E268012A00D17EE0012003B00CBC9046CA
S3150800A2709946F0BD67490A6A13430B62FEF75CFC10
S3150800A280684B8146634F0226984605E0FEF754FC64
S3150800A2904B46C01A40457FD83B6A1E42F6D0012D70
S3150800A2A004D15C4A6049D3690B40D3612368DB0655
S3150800A2B012D56369012B00D145E1053300D0C1E011
S3150800A2C00421F820534A536B8B435363516BA3699C
S3150800A2D08143DB000B435363236A002B1BD00C22FC
S3150800A2E04C4D69680A40082A00D1D8E0022B00D1F3
S3150800A2F0F1E02B684D4A802413402B60FEF71CFCC6
S3150800A300A404060004E0FEF717FC801B022843D8C5
S3150800A3102B682342F7D10020A7E701226B6A0226A1
S3150800A32093436B62FEF708FC070004E0FEF704FCA3
S3150800A330C01B022830D86B6A1E42F7D123682DE766
S3150800A340C021426849020A40802149028A4200D057
S3150800A350DEE6304A1268920300D403E76268002AF0
S3150800A36000D0FFE680E7F8252A4822690168D2006E
S3150800A370A9430A430260F7E63B6833433B60FEF7AE
S3150800A380DBFB80463B68334200D020E7FEF7D4FB70
S3150800A3904346C01A6428F5D9032066E71D4D1E4AB0
S3150800A3A02B68802613402B602B681C4AB602134084
S3150800A3B02B60FEF7C1FB070004E0FEF7BDFBC01BE0
S3150800A3C06428E9D82B683342F7D12368CAE6012204
S3150800A3D0104E0227336A93433362336A0332934338
S3150800A3E03362FEF7A9FB0F4B8146984605E0FEF758
S3150800A3F0A3FB4B46C01A4045CED8336A1F42F6D156
S3150800A4004DE701222B68022693432B60FEF794FB47
S3150800A410070012E000100240FFFFFEFFFFFFFBFFF0
S3150800A4200070004088130000FFFFFFEFFFFFFFFEEC
S3150800A430FEF782FBC01B0228AED82B681E42F7D156
S3150800A440236891E604224F4D02266B6B13436B6318
S3150800A4506B6B033A93436B63FEF76EFB070004E0EE
S3150800A460FEF76AFBC01B022896D86B6B1E42F7D113
S3150800A47032E78022434BD20219680A431A608022C7
S3150800A480196852020A431A605BE604213D4B1A6AB0
S3150800A4900A431A621A6A03390A431A62EEE6012B5C
S3150800A4A000D1E1E6C0236A68E96A656A5B0213407F
S3150800A4B00120AB4200D0D8E60F230B40E16A8B425D
S3150800A4C000D0D2E6F02080030240A06A101A421E8D
S3150800A4D09041C0B2C9E62B682B4A802613402B60F0
S3150800A4E0FEF72AFBB604070005E0FEF725FBC01BAE
S3150800A4F0022800D950E72B683342F6D10F22EB6ABF
S3150800A5009343E26A1343EB62616AA36A6A680B4380
S3150800A5101E4980240A4013436B6080232A685B0423
S3150800A52013432B60FEF708FB164D0600A40405E04E
S3150800A530FEF702FB801B022800D92DE72B68234271
S3150800A540F6D0002091E604210E4D02266A6B0A43D6
S3150800A5506A636A6B13436B63FEF7EEFA070005E05E
S3150800A560FEF7EAFAC01B022800D915E76B6B1E42F4
S3150800A570F6D0F8216A6BA3698A43DB0013436B6341
S3150800A580AAE6C04600100240FFFFFFFEFF7FC2FF9B
S3150800A59070B588B06946114B0A00180070C870C2B9
S3150800A5A000681033106004AA100070CB70C01B68D6
S3150800A5B00B4C03600C2063681840082802D0094831
S3150800A5C008B070BDE06A0F249B0C23400440CD5CA4
S3150800A5D00448115DFBF7AAFD6843F1E7CCCF0008F4
S3150800A5E00010024000127A00F8B5CE46474604002D
S3150800A5F080B50D0000280DD001233B490A681A4092
S3150800A600AA420CD20A689A432A430A600A68134087
S3150800A610AB4204D001200CBC90469946F8BD23688D
S3150800A6209A070ED55A0705D5E0223049D200486860
S3150800A63002434A60F0202D494A688243A0680243D3
S3150800A6404A60DB0721D5294B62681B68012A42D07C
S3150800A650022A45D09B07DDD50321244E0C277368B3
S3150800A6608B4313437360FEF767FA214B814698467E
S3150800A67005E0FEF761FA4B46C01A40452ED87268C7
S3150800A68063683A409B009A42F3D10121164A13683F
S3150800A6900B40AB4205D913688B4313601368194204
S3150800A6A0B8D123685B0706D5104A124953680B4090
S3150800A6B0E1680B435360FFF76BFF0C4B0E4A5B6870
S3150800A6C01B061B0FD35CD8400C4B18600020FEF706
S3150800A6D0F1F900209FE79B03BED49BE703209AE786
S3150800A6E09B01B9D496E7C0460020024000100240FC
S3150800A6F088130000FFF8FFFFA8D100080004002017
S3150800A700044B054A5B685B055B0FD35C034A10681C
S3150800A710D840704700100240B8D100080004002055
S3150800A720F0B5CE46474680B5036883B00400DA0321
S3150800A73036D58022404B5205D9690027114207D1E8
S3150800A740D96901371143D961DB691A400192019B26
S3150800A75080263A4D76002B68334242D0C021364DCA
S3150800A76089002A6A60680A4011D0014091420ED0D9
S3150800A7708022296A2E6A520232432A622A6A304B9A
S3150800A780304E0B4032402A622B62CB0742D42A4A0B
S3150800A7902B49136A0B4003431362012F32D02368F7
S3150800A7A0DA0706D5032024490A6B8243A0680243C8
S3150800A7B00A639A0606D510201F490A6B8243E06889
S3150800A7C002430A6300209B0306D580211A4A136BAD
S3150800A7D08B4321690B43136303B00CBC904699461F
S3150800A7E0F0BD2B6833432B60FEF7A6F9804605E0DB
S3150800A7F0FEF7A2F94346C01A642809D82B683342E3
S3150800A800F6D0ABE7D36910490B40D3612368C7E795
S3150800A8100320E1E7FEF790F90C4B8046022699469D
S3150800A82005E0FEF789F94346C01A4845F0D82B6A71
S3150800A8301E42F6D06068AAE7001002400070004089
S3150800A840FFFCFFFFFFFFFEFFFFFFFFEF881300007F
S3150800A850012270B57325036A93430362036A42684B
S3150800A8608469AC430D682C430225AB438D682B43A2
S3150800A8700E4DA84208D00E4DA84205D00D4DA8424F
S3150800A88002D00D4DA8420BD10825AB43CD688E6981
S3150800A8902B430425AB43094D2A404D6935432A43CA
S3150800A8A042604A6884614263036270BD002C0140BD
S3150800A8B0004001400044014000480140FFFCFFFF02
S3150800A8C070B57324036A174A13400362036A426821
S3150800A8D0C569A5430C682543134C23408C6824029C
S3150800A8E02343124CA04215D0114CA04205D0114C5E
S3150800A8F0A04202D0104CA04206D1104C4E6914401A
S3150800A9008A6932431201224342604A68C561C263BA
S3150800A910036270BD0A4C1C40CB681B022343094CDA
S3150800A9202340EAE7FFFEFFFFFFFDFFFF002C014083
S3150800A930004001400044014000480140FFCFFFFFAE
S3150800A940FFF7FFFFFFFBFFFF036A144A30B513400A
S3150800A9500362026A124D4368C4692C400D682D02D1
S3150800A9602C43104D15408A6812032A430E4DA842FF
S3150800A97008D00E4DA84205D00D4DA84202D00D4D67
S3150800A980A84204D10C4D2B404D69AD012B434360C1
S3150800A9904B68C4610364026230BDC046FFEFFFFF27
S3150800A9A0FF8CFFFFFFDFFFFF002C01400040014046
S3150800A9B00044014000480140FFBFFFFF0121036832
S3150800A9C0DA680A43DA60072298680240062A02D043
S3150800A9D01A680A431A6000207047C0461F221140B1
S3150800A9E01E3A8A400368196A91431962196A0A432A
S3150800A9F01A620E4A934208D00D4A934205D00D4A70
S3150800AA00934202D00C4A934204D18022596C120216
S3150800AA100A435A64072299680A40062A03D0012184
S3150800AA201A680A431A6000207047C046002C014085
S3150800AA3000400140004401400048014010B5FFF7BE
S3150800AA40CDFF10BD7047C0467047C0467047C04628
S3150800AA507047C0460222036810B5196904000A4205
S3150800AA6002D0D9680A4265D1042219690A4202D07D
S3150800AA70D9680A424BD1082219690A4202D0D96814
S3150800AA800A4233D1102219690A4202D0D9680A4209
S3150800AA901CD1012219690A4202D0D9680A425CD13E
S3150800AAA0802219690A4202D0D9680A425CD140223A
S3150800AAB019690A4202D0D9680A425DD12022196969
S3150800AAC00A4202D0D9680A4241D110BD213A1A6118
S3150800AAD019322277DA69C0239B0020001A425ED019
S3150800AAE0FFF7B2FF002323772368D2E7113A1A61EA
S3150800AAF0DB690D32227720009B074DD1FFF7A2FFB5
S3150800AB002000FFF7A3FF002323772368BAE7093A53
S3150800AB101A61073222779A69C0239B0020001A42DD
S3150800AB2037D1FFF78FFF2000FFF790FF0023237729
S3150800AB302368A0E7053A1A619B69043202779B07E6
S3150800AB4021D0FFF781FF0023237723688CE7413A5A
S3150800AB501A61200000F07EF9B7E7033A1A6120006F
S3150800AB60FDF782F823689BE7023AFF3A1A6120004C
S3150800AB7000F072F923689AE7813A1A612000FFF714
S3150800AB8067FF23689AE7FFF75DFF2000FFF75EFF80
S3150800AB90D9E7FFF759FFC9E7FFF756FFB3E7FFF70E
S3150800ABA051FF2000FFF752FF9CE7C04670B51C4EC8
S3150800ABB003684D698C680A68B0422CD0194EB042B9
S3150800ABC018D0194EB04219D0184EB04205D0184EBA
S3150800ABD0B04202D0174EB04214D1174E3340CE6859
S3150800ABE033438026B3432B430360C46282620B69F6
S3150800ABF003630DE07026B3434E6833430E4EC968AF
S3150800AC0033400B4380218B432B430360C46282622B
S3150800AC100123436170BD7026B3434E683343DCE7B6
S3150800AC20002C014000040040002000400040014084
S3150800AC300044014000480140FFFCFFFF70B5041EB8
S3150800AC4014D03D23C35CDBB2002B0AD002233D257A
S3150800AC5020686355211DFFF7A9FF012300206355CE
S3150800AC6070BD3C228354FDF747FEEFE70120F7E766
S3150800AC7070B5041E14D03D23C35CDBB2002B0AD08A
S3150800AC8002233D2520686355211DFFF78FFF012309
S3150800AC900020635570BD3C228354FDF719FEEFE78B
S3150800ACA00120F7E71022036A70B593430362026A2C
S3150800ACB0164C4368856925400C68240225432024E0
S3150800ACC0A2438C6824012243114CA04215D0114C92
S3150800ACD0A04205D0104CA04202D0104CA04206D18A
S3150800ACE00F4C4E691C408B6933439B0023434360DA
S3150800ACF04B6885618363026270BD8024A243140099
S3150800AD00CA68120122434024A243E9E7FF8CFFFFE9
S3150800AD10002C014000400140004401400048014029
S3150800AD20FFF3FFFF3C2370B51500C25C04000E005C
S3150800AD30012A38D00122C25401330132C254042DEB
S3150800AD4043D01DD9082D30D00C2D11D10068FFF73E
S3150800AD50FBFD802223681201D9690A43DA61DA69A0
S3150800AD6023490A40DA613269D96912020A43DA616B
S3150800AD703D230122E25400220020013BE25470BD2B
S3150800AD80002DF5D10068FFF763FD082123689A694D
S3150800AD900A439A619A6904398A439A619A693169B8
S3150800ADA00A439A61E4E70220E9E70068FFF788FDAD
S3150800ADB004212368DA691543DD61DA698A43DA61B1
S3150800ADC0DA6931690A43DA61D2E70068FFF76AFF90
S3150800ADD080222368120199690A439A619A6904498B
S3150800ADE00A409A613269996912020A439A61BFE771
S3150800ADF0FFFBFFFF3C2330B5C25C012A22D00122AB
S3150800AE007025C25401330132C25403685A689C68DB
S3150800AE10AA430D682A435A600B4A934205D00B4A47
S3150800AE20934202D00A4A934204D1802294434A6844
S3150800AE3014439C603D230122C2540022013BC254A4
S3150800AE40002030BD0220FCE7002C01400004004031
S3150800AE50004001407047C0467047C0467047C0462C
S3150800AE607047C046036870B5DA69574D040019681B
S3150800AE7098682A425CD00125284062D001251542EF
S3150800AE8005D0CE0503D51D62E66F3543E567022575
S3150800AE90154200D174E0002807D004261D62E56F2C
S3150800AEA03543E567164200D070E0150705D58D06CF
S3150800AEB000D572E0002800D06FE080200001024231
S3150800AEC006D04D0104D520251862E06F2843E067B7
S3150800AED0E06F00282BD02020104201D0084266D10E
S3150800AEE0E16F9A68520602D428250D4067D01A6881
S3150800AEF036490A401A609A682331FF318A439A60B4
S3150800AF002022A267002222669A683F3111424AD05F
S3150800AF109A68E06E8A439A60002844D02C4B4363B3
S3150800AF20FEF71CFA002802D0E06E436B984770BD06
S3150800AF302020104209D0084207D0236E002B1CD1CE
S3150800AF40F5E72035FF35294298D1802010420FD1E8
S3150800AF5040201042EBD00842E9D01A6882431A60B2
S3150800AF6020236367002320006366FFF777FFDEE789
S3150800AF700842EDD0636E002BD9D020009847D6E75B
S3150800AF80550700D491E7002800D18EE7042502264C
S3150800AF901D62E56F3543E56787E708251D62E06FA3
S3150800AFA02843E06789E72000FFF75AFFBFE7226ECC
S3150800AFB0002A00D194E720009047236890E72000F4
S3150800AFC0FFF74EFFE567B2E70F080000DFFEFFFF59
S3150800AFD0D5AF000800235A2210B5406A8352083AB2
S3150800AFE08352FFF73DFF10BD70B504002569A368BD
S3150800AFF022682B4365691168C0692B434D4D03438D
S3150800B00029400B43136053684B49256A0B40E16896
S3150800B0100B435360A36991682B43484D29400B4362
S3150800B0209360474B9A4224D0464B9A420AD0464BE5
S3150800B0309A4207D0454B9A4204D001200023236642
S3150800B040636670BD80231B02984264D0FFF758FBE5
S3150800B050636861685B081818FBF768F80004000C59
S3150800B06003003B4A103B9342E7D82368D860002088
S3150800B070E4E7384B1A6B03231340374AD35C802224
S3150800B080120290420BD0022B2CD04FD9042B26D07B
S3150800B090082BD2D16368580880231B0225E0022BAF
S3150800B0A02BD035D9042B39D1FFF772FA63684000E3
S3150800B0B05B08C0186168FBF739F80004000C030048
S3150800B0C0234A103B9342B8D80F2302009A43130031
S3150800B0D000072268400F1843D0600020AEE7FFF74C
S3150800B0E057FAB5E7636858081C4B9C466168604484
S3150800B0F0FBF71CF80004000CB2E763685808184B05
S3150800B1009C4661686044FBF711F80004000CD6E71A
S3150800B110002B00D091E7FFF7F3FAC7E7082B00D01A
S3150800B1208BE76368580880235B02E9E7002B00D0A9
S3150800B13083E78BE7F369FFEFFFCFFFFFFFF4FFFF1E
S3150800B140003801400044004000480040004C0040E0
S3150800B150EFFF000000100240C0D1000800127A007C
S3150800B1600024F400436A30B5DA0706D50168284C8E
S3150800B1704A682240846A22434A609A0706D50168CB
S3150800B180244C4A682240C46A22434A605A0706D5B4
S3150800B1900168214C4A682240046B22434A601A0718
S3150800B1A006D501681D4C4A682240446B22434A6012
S3150800B1B0DA0606D501681A4C8A682240846B22434F
S3150800B1C08A609A0606D50168164C8A682240C46BBE
S3150800B1D022438A605A060AD50168134D4A68046CE8
S3150800B1E02A4022434A6080225203944209D01B0611
S3150800B1F006D502680D4953680B40816C0B435360B2
S3150800B20030BD4A680A4C2240446C22434A60EEE745
S3150800B210FFFFFDFFFFFFFEFFFFFFFBFFFF7FFFFFB7
S3150800B220FFEFFFFFFFDFFFFFFFFFEFFFFFFFF7FF68
S3150800B230FFFF9FFFF0B54646984604234F46D6467D
S3150800B24099468023C0B51B01160007000C00089D0F
S3150800B25002689A4601E06B1C0CD1D36923401B1B7C
S3150800B26059424B41B342F6D000201CBC9046994641
S3150800B270A246F0BDFDF760FC43463A68C01AA842EC
S3150800B2801CD8002D1AD0494613681942E5D05146F4
S3150800B290D3690B42E1D011621368114903200B40B0
S3150800B2A013609368A331FF318B43936020230022F8
S3150800B2B07B67BB67FB675033FA54D6E713680849C0
S3150800B2C003200B4013609368A331FF318B439360CF
S3150800B2D0202300227B67BB675033FA54C5E7C04674
S3150800B2E05FFEFFFF002330B50400C36783B0FDF798
S3150800B2F023FC236805001A6812070BD41B685B0732
S3150800B30017D42023002200206367A3675033E25432
S3150800B31003B030BD80210D4B002200938903030042
S3150800B3202000FFF787FF00280ED123681B685B07FC
S3150800B330E7D58021054B00220093C9032B00200086
S3150800B340FFF778FF0028DCD00320E1E7FFFFFF01C5
S3150800B35010B5041E27D0436F002B1FD024230121CC
S3150800B36022686367136820008B431360FFF73CFE6F
S3150800B370012818D0636A002B17D123680D495A682B
S3150800B38020000A4008215A609A688A439A601A6817
S3150800B39007390A431A60FFF7A5FF10BD70228354C8
S3150800B3A0FDF7F4FADAE70120F7E72000FFF7DAFEFF
S3150800B3B0E3E7C046FFF7FFFF40220349835A0B43E2
S3150800B3C0835200207047C04680BF000040220349D0
S3150800B3D0835A0B40835200207047C0467F400000C6
S3150800B3E084B002920393012240230191C252442160
S3150800B3F00022C25242520C314252C25A02490A43F0
S3150800B400C252002004B0704780BF0000F0B50D7826
S3150800B4100300AD0045192A88A3480240C8780128C8
S3150800B42000D119E1002800D111E1022841D00328F2
S3150800B43000D107E101209D4C224392B22A800F7861
S3150800B4409B4DBE009E1932882A403A431443A4B243
S3150800B45034800A7B002A2ED1CA880C784E78520886
S3150800B460E4005200E418002E00D1B8E050269E5B96
S3150800B47034198026F600B446644422800A7892007D
S3150800B4809A181488640607D514882540894C2543DC
S3150800B49015800A7892009A18CB78012B00D1F1E032
S3150800B4A0138885490B4020214B4084490B43138060
S3150800B4B05CE00020BFE70A78814E92009A1814884B
S3150800B4C02C403443502614800A789C5BD20012190B
S3150800B4D08024E400A4460C89D218640862446400F7
S3150800B4E014800A789C5BD2001219764CD218A446AE
S3150800B4F04C8962446408640014804A78002A36D16C
S3150800B5000A7892009A181488640407D51488254086
